:100000000C9461000C947E000C947E000C947E0095
:100010000C947E000C947E000C947E000C947E0068
:100020000C947E000C947E000C947E000C947E0058
:100030000C947E000C947E000C947E000C947E0048
:100040000C94B3010C947E000C947E000C947E0002
:100050000C947E000C947E000C947E000C947E0028
:100060000C947E000C947E00000000002400270009
:100070002A0000000000250028002B0000000000DE
:1000800023002600290004040404040404040202DA
:100090000202020203030303030301020408102007
:1000A0004080010204081020010204081020000012
:1000B0000008000201000003040700000000000027
:1000C000000011241FBECFEFD8E0DEBFCDBF11E08E
:1000D000A0E0B1E0E0ECF6E002C005900D92A030A7
:1000E000B107D9F721E0A0E0B1E001C01D92AB302B
:1000F000B207E1F70E94FD010C945E030C9400002E
:10010000833081F028F4813099F08230A9F008958D
:100110008730A9F08830C9F08430B1F48091800034
:100120008F7D03C0809180008F7780938000089539
:1001300084B58F7784BD089584B58F7DFBCF809182
:10014000B0008F778093B00008958091B0008F7DCC
:10015000F9CFCF93DF93282F30E0F901E255FF4F1D
:100160008491F901E656FF4FD491F901EA57FF4F08
:10017000C491CC23A1F081110E948000EC2FF0E00B
:10018000EE0FFF1FE458FF4FA591B491EC91ED23C2
:1001900081E090E009F480E0DF91CF91089580E064
:1001A00090E0FACF1F93CF93DF93282F30E0F9012F
:1001B000E255FF4F8491F901E656FF4FD491F901C2
:1001C000EA57FF4FC491CC23A9F0162F81110E944A
:1001D0008000EC2FF0E0EE0FFF1FEE58FF4FA591CF
:1001E000B4918FB7F894EC91111108C0D095DE232B
:1001F000DC938FBFDF91CF911F910895DE2BF8CF55
:10020000CF93DF9390E0FC01E656FF4F24918A578D
:100210009F4FFC0184918823D1F090E0880F991FB3
:10022000FC01E859FF4FA591B491FC01EE58FF4F36
:10023000C591D49161110EC09FB7F8948C91E22FB3
:10024000E0958E238C932881E223E8839FBFDF9182
:10025000CF9108958FB7F894EC91E22BEC938FBF78
:10026000F6CF1F93CF93DF93182FEB0161E00E942D
:100270000001209739F460E0812FDF91CF911F9129
:100280000C94D200CF3FD10511F461E0F5CFE12FFE
:10029000F0E0E255FF4FE491E33031F140F4E1301A
:1002A000B1F0E230E1F0C038D1057CF7E4CFE730BF
:1002B00029F1E83059F1E430B1F780918000806293
:1002C00080938000D0938B00C0938A0004C084B5D3
:1002D000806884BDC7BDDF91CF911F91089584B51B
:1002E000806284BDC8BDF7CF809180008068809314
:1002F0008000D0938900C0938800EDCF8091B0003A
:1003000080688093B000C093B300E5CF8091B000C7
:1003100080628093B000C093B400DDCF3FB7F89403
:100320008091050190910601A0910701B09108010B
:1003300026B5A89B05C02F3F19F00196A11DB11D40
:100340003FBFBA2FA92F982F8827BC01CD01620F7C
:10035000711D811D911D42E0660F771F881F991F37
:100360004A95D1F708951F920F920FB60F9211245C
:100370002F933F938F939F93AF93BF9380910101EE
:1003800090910201A0910301B0910401309100010C
:1003900023E0230F2D3758F50196A11DB11D2093A1
:1003A00000018093010190930201A0930301B09397
:1003B00004018091050190910601A0910701B0917F
:1003C00008010196A11DB11D8093050190930601BE
:1003D000A0930701B0930801BF91AF919F918F91B6
:1003E0003F912F910F900FBE0F901F90189526E808
:1003F000230F0296A11DB11DD2CF789484B58260DF
:1004000084BD84B5816084BD85B5826085BD85B5B8
:10041000816085BD80916E00816080936E00109236
:1004200081008091810082608093810080918100B1
:100430008160809381008091800081608093800042
:100440008091B10084608093B1008091B0008160A0
:100450008093B00080917A00846080937A008091CC
:100460007A00826080937A0080917A008160809324
:100470007A0080917A00806880937A001092C1009F
:1004800060E08EE00E94000160E08FE00E940001C9
:1004900060E080E10E94000161E081E10E940001D2
:1004A00061E08BE00E94000161E086E00E940001B3
:1004B00061E08AE00E94000112E444244A9493E03F
:1004C000592E612C712CC0E0D0E010937C008091FB
:1004D0007A00806480937A0080917A0086FDFCCF58
:1004E00080917800A0917900BA2FA82F2FEF30E0EB
:1004F0000E945703A30192010E94070369013093F0
:100500000A01209309018EE00E94A900019799F445
:100510008FE00E94A900892B71F4B60186E00E9449
:10052000310161E08BE00E94D20060E08AE00E942D
:10053000D20060E019C08EE00E94A900892BE9F08A
:100540008EE00E94A900019739F58FE00E94A90072
:10055000019711F570E060E08AE00E94310160E0EF
:100560008BE00E94D20061E081E10E94D2002097DE
:1005700009F4ABCF0E940000A8CF8FE00E94A90031
:100580000197F1F6B60186E00E94310160E08BE050
:100590000E94D20061E0CACF8EE00E94A900892BA0
:1005A00031F78FE00E94A900892B09F760E086E00F
:1005B0000E94D2000E948E014B015C0188EEC82E81
:1005C00083E0D82EE12CF12C0E948E016819790964
:1005D0008A099B09683E734081059105A8F321E0D3
:1005E000C21AD108E108F10888EE880E83E0981E4F
:1005F000A11CB11CC114D104E104F10429F770E07D
:1006000060E08AE00E94310160E08BE090CF052E2F
:1006100097FB1EF400940E941E0357FD07D00E9412
:10062000260307FC03D04EF40C941E03509540950E
:10063000309521953F4F4F4F5F4F0895909580958E
:10064000709561957F4F8F4F9F4F0895A1E21A2EAD
:10065000AA1BBB1BFD010DC0AA1FBB1FEE1FFF1F66
:10066000A217B307E407F50720F0A21BB30BE40BB6
:10067000F50B661F771F881F991F1A9469F76095FD
:100680007095809590959B01AC01BD01CF010895B7
:10069000A29FB001B39FC001A39F700D811D1124C3
:1006A000911DB29F700D811D1124911D08950E940E
:1006B0004803B7FF0895821B930B0895F894FFCF6A
:00000001FF
